{
	"data": {
		"bytecode": {
			"linkReferences": {},
			"object": "608060405234801561000f575f80fd5b506105328061001d5f395ff3fe608060405234801561000f575f80fd5b5060043610610060575f3560e01c806306dac065146100645780630d4e06ad146100945780634b39ab5e146100c45780639a7b890c146100f4578063ddf7cb8814610124578063ed821fb314610154575b5f80fd5b61007e60048036038101906100799190610281565b610184565b60405161008b91906102e0565b60405180910390f35b6100ae60048036038101906100a9919061032c565b6101a5565b6040516100bb919061038b565b60405180910390f35b6100de60048036038101906100d99190610281565b6101c6565b6040516100eb91906102e0565b60405180910390f35b61010e6004803603810190610109919061032c565b6101e7565b60405161011b919061038b565b60405180910390f35b61013e6004803603810190610139919061032c565b610208565b60405161014b919061038b565b60405180910390f35b61016e60048036038101906101699190610281565b610229565b60405161017b91906102e0565b60405180910390f35b5f81838561019291906103d1565b61019c91906103d1565b90509392505050565b5f8183856101b39190610412565b6101bd9190610412565b90509392505050565b5f8183856101d49190610453565b6101de91906103d1565b90509392505050565b5f8183856101f59190610412565b6101ff91906104c9565b90509392505050565b5f81838561021691906104c9565b61022091906104c9565b90509392505050565b5f8183856102379190610453565b6102419190610453565b90509392505050565b5f80fd5b5f819050919050565b6102608161024e565b811461026a575f80fd5b50565b5f8135905061027b81610257565b92915050565b5f805f606084860312156102985761029761024a565b5b5f6102a58682870161026d565b93505060206102b68682870161026d565b92505060406102c78682870161026d565b9150509250925092565b6102da8161024e565b82525050565b5f6020820190506102f35f8301846102d1565b92915050565b5f819050919050565b61030b816102f9565b8114610315575f80fd5b50565b5f8135905061032681610302565b92915050565b5f805f606084860312156103435761034261024a565b5b5f61035086828701610318565b935050602061036186828701610318565b925050604061037286828701610318565b9150509250925092565b610385816102f9565b82525050565b5f60208201905061039e5f83018461037c565b92915050565b7f4e487b71000000000000000000000000000000000000000000000000000000005f52601160045260245ffd5b5f6103db8261024e565b91506103e68361024e565b92508282019050828112155f8312168382125f84121516171561040c5761040b6103a4565b5b92915050565b5f61041c826102f9565b9150610427836102f9565b9250828202610435816102f9565b9150828204841483151761044c5761044b6103a4565b5b5092915050565b5f61045d8261024e565b91506104688361024e565b92508282026104768161024e565b91507f800000000000000000000000000000000000000000000000000000000000000084145f841216156104ad576104ac6103a4565b5b82820584148315176104c2576104c16103a4565b5b5092915050565b5f6104d3826102f9565b91506104de836102f9565b92508282019050808211156104f6576104f56103a4565b5b9291505056fea26469706673582212207ed667464c18cd6bbb91efa47948eb22167315fb8d5cbb1575a7200531c26e6c64736f6c63430008160033",
			"opcodes": "PUSH1 0x80 PUSH1 0x40 MSTORE CALLVALUE DUP1 ISZERO PUSH2 0xF JUMPI PUSH0 DUP1 REVERT JUMPDEST POP PUSH2 0x532 DUP1 PUSH2 0x1D PUSH0 CODECOPY PUSH0 RETURN INVALID PUSH1 0x80 PUSH1 0x40 MSTORE CALLVALUE DUP1 ISZERO PUSH2 0xF JUMPI PUSH0 DUP1 REVERT JUMPDEST POP PUSH1 0x4 CALLDATASIZE LT PUSH2 0x60 JUMPI PUSH0 CALLDATALOAD PUSH1 0xE0 SHR DUP1 PUSH4 0x6DAC065 EQ PUSH2 0x64 JUMPI DUP1 PUSH4 0xD4E06AD EQ PUSH2 0x94 JUMPI DUP1 PUSH4 0x4B39AB5E EQ PUSH2 0xC4 JUMPI DUP1 PUSH4 0x9A7B890C EQ PUSH2 0xF4 JUMPI DUP1 PUSH4 0xDDF7CB88 EQ PUSH2 0x124 JUMPI DUP1 PUSH4 0xED821FB3 EQ PUSH2 0x154 JUMPI JUMPDEST PUSH0 DUP1 REVERT JUMPDEST PUSH2 0x7E PUSH1 0x4 DUP1 CALLDATASIZE SUB DUP2 ADD SWAP1 PUSH2 0x79 SWAP2 SWAP1 PUSH2 0x281 JUMP JUMPDEST PUSH2 0x184 JUMP JUMPDEST PUSH1 0x40 MLOAD PUSH2 0x8B SWAP2 SWAP1 PUSH2 0x2E0 JUMP JUMPDEST PUSH1 0x40 MLOAD DUP1 SWAP2 SUB SWAP1 RETURN JUMPDEST PUSH2 0xAE PUSH1 0x4 DUP1 CALLDATASIZE SUB DUP2 ADD SWAP1 PUSH2 0xA9 SWAP2 SWAP1 PUSH2 0x32C JUMP JUMPDEST PUSH2 0x1A5 JUMP JUMPDEST PUSH1 0x40 MLOAD PUSH2 0xBB SWAP2 SWAP1 PUSH2 0x38B JUMP JUMPDEST PUSH1 0x40 MLOAD DUP1 SWAP2 SUB SWAP1 RETURN JUMPDEST PUSH2 0xDE PUSH1 0x4 DUP1 CALLDATASIZE SUB DUP2 ADD SWAP1 PUSH2 0xD9 SWAP2 SWAP1 PUSH2 0x281 JUMP JUMPDEST PUSH2 0x1C6 JUMP JUMPDEST PUSH1 0x40 MLOAD PUSH2 0xEB SWAP2 SWAP1 PUSH2 0x2E0 JUMP JUMPDEST PUSH1 0x40 MLOAD DUP1 SWAP2 SUB SWAP1 RETURN JUMPDEST PUSH2 0x10E PUSH1 0x4 DUP1 CALLDATASIZE SUB DUP2 ADD SWAP1 PUSH2 0x109 SWAP2 SWAP1 PUSH2 0x32C JUMP JUMPDEST PUSH2 0x1E7 JUMP JUMPDEST PUSH1 0x40 MLOAD PUSH2 0x11B SWAP2 SWAP1 PUSH2 0x38B JUMP JUMPDEST PUSH1 0x40 MLOAD DUP1 SWAP2 SUB SWAP1 RETURN JUMPDEST PUSH2 0x13E PUSH1 0x4 DUP1 CALLDATASIZE SUB DUP2 ADD SWAP1 PUSH2 0x139 SWAP2 SWAP1 PUSH2 0x32C JUMP JUMPDEST PUSH2 0x208 JUMP JUMPDEST PUSH1 0x40 MLOAD PUSH2 0x14B SWAP2 SWAP1 PUSH2 0x38B JUMP JUMPDEST PUSH1 0x40 MLOAD DUP1 SWAP2 SUB SWAP1 RETURN JUMPDEST PUSH2 0x16E PUSH1 0x4 DUP1 CALLDATASIZE SUB DUP2 ADD SWAP1 PUSH2 0x169 SWAP2 SWAP1 PUSH2 0x281 JUMP JUMPDEST PUSH2 0x229 JUMP JUMPDEST PUSH1 0x40 MLOAD PUSH2 0x17B SWAP2 SWAP1 PUSH2 0x2E0 JUMP JUMPDEST PUSH1 0x40 MLOAD DUP1 SWAP2 SUB SWAP1 RETURN JUMPDEST PUSH0 DUP2 DUP4 DUP6 PUSH2 0x192 SWAP2 SWAP1 PUSH2 0x3D1 JUMP JUMPDEST PUSH2 0x19C SWAP2 SWAP1 PUSH2 0x3D1 JUMP JUMPDEST SWAP1 POP SWAP4 SWAP3 POP POP POP JUMP JUMPDEST PUSH0 DUP2 DUP4 DUP6 PUSH2 0x1B3 SWAP2 SWAP1 PUSH2 0x412 JUMP JUMPDEST PUSH2 0x1BD SWAP2 SWAP1 PUSH2 0x412 JUMP JUMPDEST SWAP1 POP SWAP4 SWAP3 POP POP POP JUMP JUMPDEST PUSH0 DUP2 DUP4 DUP6 PUSH2 0x1D4 SWAP2 SWAP1 PUSH2 0x453 JUMP JUMPDEST PUSH2 0x1DE SWAP2 SWAP1 PUSH2 0x3D1 JUMP JUMPDEST SWAP1 POP SWAP4 SWAP3 POP POP POP JUMP JUMPDEST PUSH0 DUP2 DUP4 DUP6 PUSH2 0x1F5 SWAP2 SWAP1 PUSH2 0x412 JUMP JUMPDEST PUSH2 0x1FF SWAP2 SWAP1 PUSH2 0x4C9 JUMP JUMPDEST SWAP1 POP SWAP4 SWAP3 POP POP POP JUMP JUMPDEST PUSH0 DUP2 DUP4 DUP6 PUSH2 0x216 SWAP2 SWAP1 PUSH2 0x4C9 JUMP JUMPDEST PUSH2 0x220 SWAP2 SWAP1 PUSH2 0x4C9 JUMP JUMPDEST SWAP1 POP SWAP4 SWAP3 POP POP POP JUMP JUMPDEST PUSH0 DUP2 DUP4 DUP6 PUSH2 0x237 SWAP2 SWAP1 PUSH2 0x453 JUMP JUMPDEST PUSH2 0x241 SWAP2 SWAP1 PUSH2 0x453 JUMP JUMPDEST SWAP1 POP SWAP4 SWAP3 POP POP POP JUMP JUMPDEST PUSH0 DUP1 REVERT JUMPDEST PUSH0 DUP2 SWAP1 POP SWAP2 SWAP1 POP JUMP JUMPDEST PUSH2 0x260 DUP2 PUSH2 0x24E JUMP JUMPDEST DUP2 EQ PUSH2 0x26A JUMPI PUSH0 DUP1 REVERT JUMPDEST POP JUMP JUMPDEST PUSH0 DUP2 CALLDATALOAD SWAP1 POP PUSH2 0x27B DUP2 PUSH2 0x257 JUMP JUMPDEST SWAP3 SWAP2 POP POP JUMP JUMPDEST PUSH0 DUP1 PUSH0 PUSH1 0x60 DUP5 DUP7 SUB SLT ISZERO PUSH2 0x298 JUMPI PUSH2 0x297 PUSH2 0x24A JUMP JUMPDEST JUMPDEST PUSH0 PUSH2 0x2A5 DUP7 DUP3 DUP8 ADD PUSH2 0x26D JUMP JUMPDEST SWAP4 POP POP PUSH1 0x20 PUSH2 0x2B6 DUP7 DUP3 DUP8 ADD PUSH2 0x26D JUMP JUMPDEST SWAP3 POP POP PUSH1 0x40 PUSH2 0x2C7 DUP7 DUP3 DUP8 ADD PUSH2 0x26D JUMP JUMPDEST SWAP2 POP POP SWAP3 POP SWAP3 POP SWAP3 JUMP JUMPDEST PUSH2 0x2DA DUP2 PUSH2 0x24E JUMP JUMPDEST DUP3 MSTORE POP POP JUMP JUMPDEST PUSH0 PUSH1 0x20 DUP3 ADD SWAP1 POP PUSH2 0x2F3 PUSH0 DUP4 ADD DUP5 PUSH2 0x2D1 JUMP JUMPDEST SWAP3 SWAP2 POP POP JUMP JUMPDEST PUSH0 DUP2 SWAP1 POP SWAP2 SWAP1 POP JUMP JUMPDEST PUSH2 0x30B DUP2 PUSH2 0x2F9 JUMP JUMPDEST DUP2 EQ PUSH2 0x315 JUMPI PUSH0 DUP1 REVERT JUMPDEST POP JUMP JUMPDEST PUSH0 DUP2 CALLDATALOAD SWAP1 POP PUSH2 0x326 DUP2 PUSH2 0x302 JUMP JUMPDEST SWAP3 SWAP2 POP POP JUMP JUMPDEST PUSH0 DUP1 PUSH0 PUSH1 0x60 DUP5 DUP7 SUB SLT ISZERO PUSH2 0x343 JUMPI PUSH2 0x342 PUSH2 0x24A JUMP JUMPDEST JUMPDEST PUSH0 PUSH2 0x350 DUP7 DUP3 DUP8 ADD PUSH2 0x318 JUMP JUMPDEST SWAP4 POP POP PUSH1 0x20 PUSH2 0x361 DUP7 DUP3 DUP8 ADD PUSH2 0x318 JUMP JUMPDEST SWAP3 POP POP PUSH1 0x40 PUSH2 0x372 DUP7 DUP3 DUP8 ADD PUSH2 0x318 JUMP JUMPDEST SWAP2 POP POP SWAP3 POP SWAP3 POP SWAP3 JUMP JUMPDEST PUSH2 0x385 DUP2 PUSH2 0x2F9 JUMP JUMPDEST DUP3 MSTORE POP POP JUMP JUMPDEST PUSH0 PUSH1 0x20 DUP3 ADD SWAP1 POP PUSH2 0x39E PUSH0 DUP4 ADD DUP5 PUSH2 0x37C JUMP JUMPDEST SWAP3 SWAP2 POP POP JUMP JUMPDEST PUSH32 0x4E487B7100000000000000000000000000000000000000000000000000000000 PUSH0 MSTORE PUSH1 0x11 PUSH1 0x4 MSTORE PUSH1 0x24 PUSH0 REVERT JUMPDEST PUSH0 PUSH2 0x3DB DUP3 PUSH2 0x24E JUMP JUMPDEST SWAP2 POP PUSH2 0x3E6 DUP4 PUSH2 0x24E JUMP JUMPDEST SWAP3 POP DUP3 DUP3 ADD SWAP1 POP DUP3 DUP2 SLT ISZERO PUSH0 DUP4 SLT AND DUP4 DUP3 SLT PUSH0 DUP5 SLT ISZERO AND OR ISZERO PUSH2 0x40C JUMPI PUSH2 0x40B PUSH2 0x3A4 JUMP JUMPDEST JUMPDEST SWAP3 SWAP2 POP POP JUMP JUMPDEST PUSH0 PUSH2 0x41C DUP3 PUSH2 0x2F9 JUMP JUMPDEST SWAP2 POP PUSH2 0x427 DUP4 PUSH2 0x2F9 JUMP JUMPDEST SWAP3 POP DUP3 DUP3 MUL PUSH2 0x435 DUP2 PUSH2 0x2F9 JUMP JUMPDEST SWAP2 POP DUP3 DUP3 DIV DUP5 EQ DUP4 ISZERO OR PUSH2 0x44C JUMPI PUSH2 0x44B PUSH2 0x3A4 JUMP JUMPDEST JUMPDEST POP SWAP3 SWAP2 POP POP JUMP JUMPDEST PUSH0 PUSH2 0x45D DUP3 PUSH2 0x24E JUMP JUMPDEST SWAP2 POP PUSH2 0x468 DUP4 PUSH2 0x24E JUMP JUMPDEST SWAP3 POP DUP3 DUP3 MUL PUSH2 0x476 DUP2 PUSH2 0x24E JUMP JUMPDEST SWAP2 POP PUSH32 0x8000000000000000000000000000000000000000000000000000000000000000 DUP5 EQ PUSH0 DUP5 SLT AND ISZERO PUSH2 0x4AD JUMPI PUSH2 0x4AC PUSH2 0x3A4 JUMP JUMPDEST JUMPDEST DUP3 DUP3 SDIV DUP5 EQ DUP4 ISZERO OR PUSH2 0x4C2 JUMPI PUSH2 0x4C1 PUSH2 0x3A4 JUMP JUMPDEST JUMPDEST POP SWAP3 SWAP2 POP POP JUMP JUMPDEST PUSH0 PUSH2 0x4D3 DUP3 PUSH2 0x2F9 JUMP JUMPDEST SWAP2 POP PUSH2 0x4DE DUP4 PUSH2 0x2F9 JUMP JUMPDEST SWAP3 POP DUP3 DUP3 ADD SWAP1 POP DUP1 DUP3 GT ISZERO PUSH2 0x4F6 JUMPI PUSH2 0x4F5 PUSH2 0x3A4 JUMP JUMPDEST JUMPDEST SWAP3 SWAP2 POP POP JUMP INVALID LOG2 PUSH5 0x6970667358 0x22 SLT KECCAK256 PUSH31 0xD667464C18CD6BBB91EFA47948EB22167315FB8D5CBB1575A7200531C26E6C PUSH5 0x736F6C6343 STOP ADDMOD AND STOP CALLER "
		},
		"gasEstimates": {
			"creation": {
				"codeDepositCost": "266000",
				"executionCost": "304",
				"totalCost": "266304"
			},
			"external": {
				"AddThree1(uint256,uint256,uint256)": "infinite",
				"AddThree2(int256,int256,int256)": "infinite",
				"MultiplyAndAdd1(uint256,uint256,uint256)": "infinite",
				"MultiplyAndAdd2(int256,int256,int256)": "infinite",
				"MultiplyThree1(uint256,uint256,uint256)": "infinite",
				"MultiplyThree2(int256,int256,int256)": "infinite"
			}
		},
		"methodIdentifiers": {
			"AddThree1(uint256,uint256,uint256)": "ddf7cb88",
			"AddThree2(int256,int256,int256)": "06dac065",
			"MultiplyAndAdd1(uint256,uint256,uint256)": "9a7b890c",
			"MultiplyAndAdd2(int256,int256,int256)": "4b39ab5e",
			"MultiplyThree1(uint256,uint256,uint256)": "0d4e06ad",
			"MultiplyThree2(int256,int256,int256)": "ed821fb3"
		}
	},
	"abi": [
		{
			"inputs": [
				{
					"internalType": "uint256",
					"name": "_a",
					"type": "uint256"
				},
				{
					"internalType": "uint256",
					"name": "_b",
					"type": "uint256"
				},
				{
					"internalType": "uint256",
					"name": "_c",
					"type": "uint256"
				}
			],
			"name": "AddThree1",
			"outputs": [
				{
					"internalType": "uint256",
					"name": "",
					"type": "uint256"
				}
			],
			"stateMutability": "pure",
			"type": "function"
		},
		{
			"inputs": [
				{
					"internalType": "int256",
					"name": "_a",
					"type": "int256"
				},
				{
					"internalType": "int256",
					"name": "_b",
					"type": "int256"
				},
				{
					"internalType": "int256",
					"name": "_c",
					"type": "int256"
				}
			],
			"name": "AddThree2",
			"outputs": [
				{
					"internalType": "int256",
					"name": "",
					"type": "int256"
				}
			],
			"stateMutability": "pure",
			"type": "function"
		},
		{
			"inputs": [
				{
					"internalType": "uint256",
					"name": "_a",
					"type": "uint256"
				},
				{
					"internalType": "uint256",
					"name": "_b",
					"type": "uint256"
				},
				{
					"internalType": "uint256",
					"name": "_c",
					"type": "uint256"
				}
			],
			"name": "MultiplyAndAdd1",
			"outputs": [
				{
					"internalType": "uint256",
					"name": "",
					"type": "uint256"
				}
			],
			"stateMutability": "pure",
			"type": "function"
		},
		{
			"inputs": [
				{
					"internalType": "int256",
					"name": "_a",
					"type": "int256"
				},
				{
					"internalType": "int256",
					"name": "_b",
					"type": "int256"
				},
				{
					"internalType": "int256",
					"name": "_c",
					"type": "int256"
				}
			],
			"name": "MultiplyAndAdd2",
			"outputs": [
				{
					"internalType": "int256",
					"name": "",
					"type": "int256"
				}
			],
			"stateMutability": "pure",
			"type": "function"
		},
		{
			"inputs": [
				{
					"internalType": "uint256",
					"name": "_a",
					"type": "uint256"
				},
				{
					"internalType": "uint256",
					"name": "_b",
					"type": "uint256"
				},
				{
					"internalType": "uint256",
					"name": "_c",
					"type": "uint256"
				}
			],
			"name": "MultiplyThree1",
			"outputs": [
				{
					"internalType": "uint256",
					"name": "",
					"type": "uint256"
				}
			],
			"stateMutability": "pure",
			"type": "function"
		},
		{
			"inputs": [
				{
					"internalType": "int256",
					"name": "_a",
					"type": "int256"
				},
				{
					"internalType": "int256",
					"name": "_b",
					"type": "int256"
				},
				{
					"internalType": "int256",
					"name": "_c",
					"type": "int256"
				}
			],
			"name": "MultiplyThree2",
			"outputs": [
				{
					"internalType": "int256",
					"name": "",
					"type": "int256"
				}
			],
			"stateMutability": "pure",
			"type": "function"
		}
	]
}