{
	"data": {
		"bytecode": {
			"linkReferences": {},
			"object": "608060405234801561000f575f80fd5b5061048f8061001d5f395ff3fe608060405234801561000f575f80fd5b5060043610610055575f3560e01c80630630371a14610059578063165c4a16146100895780632935c707146100b9578063771602f7146100e9578063f88e9fbf14610119575b5f80fd5b610073600480360381019061006e91906101e9565b610149565b6040516100809190610236565b60405180910390f35b6100a3600480360381019061009e91906101e9565b61015e565b6040516100b09190610236565b60405180910390f35b6100d360048036038101906100ce9190610282565b610173565b6040516100e091906102cf565b60405180910390f35b61010360048036038101906100fe91906101e9565b610188565b6040516101109190610236565b60405180910390f35b610133600480360381019061012e91906101e9565b61019d565b6040516101409190610236565b60405180910390f35b5f81836101569190610315565b905092915050565b5f818361016b9190610348565b905092915050565b5f81836101809190610389565b905092915050565b5f818361019591906103c9565b905092915050565b5f81836101aa9190610429565b905092915050565b5f80fd5b5f819050919050565b6101c8816101b6565b81146101d2575f80fd5b50565b5f813590506101e3816101bf565b92915050565b5f80604083850312156101ff576101fe6101b2565b5b5f61020c858286016101d5565b925050602061021d858286016101d5565b9150509250929050565b610230816101b6565b82525050565b5f6020820190506102495f830184610227565b92915050565b5f819050919050565b6102618161024f565b811461026b575f80fd5b50565b5f8135905061027c81610258565b92915050565b5f8060408385031215610298576102976101b2565b5b5f6102a58582860161026e565b92505060206102b68582860161026e565b9150509250929050565b6102c98161024f565b82525050565b5f6020820190506102e25f8301846102c0565b92915050565b7f4e487b71000000000000000000000000000000000000000000000000000000005f52601160045260245ffd5b5f61031f826101b6565b915061032a836101b6565b9250828203905081811115610342576103416102e8565b5b92915050565b5f610352826101b6565b915061035d836101b6565b925082820261036b816101b6565b91508282048414831517610382576103816102e8565b5b5092915050565b5f6103938261024f565b915061039e8361024f565b925082820390508181125f8412168282135f8512151617156103c3576103c26102e8565b5b92915050565b5f6103d3826101b6565b91506103de836101b6565b92508282019050808211156103f6576103f56102e8565b5b92915050565b7f4e487b71000000000000000000000000000000000000000000000000000000005f52601260045260245ffd5b5f610433826101b6565b915061043e836101b6565b92508261044e5761044d6103fc565b5b82820490509291505056fea26469706673582212202ebc4c99c0da1ed35aeb2351283583a216bf3002dec5551ff4f63337d4c11ac164736f6c63430008160033",
			"opcodes": "PUSH1 0x80 PUSH1 0x40 MSTORE CALLVALUE DUP1 ISZERO PUSH2 0xF JUMPI PUSH0 DUP1 REVERT JUMPDEST POP PUSH2 0x48F DUP1 PUSH2 0x1D PUSH0 CODECOPY PUSH0 RETURN INVALID PUSH1 0x80 PUSH1 0x40 MSTORE CALLVALUE DUP1 ISZERO PUSH2 0xF JUMPI PUSH0 DUP1 REVERT JUMPDEST POP PUSH1 0x4 CALLDATASIZE LT PUSH2 0x55 JUMPI PUSH0 CALLDATALOAD PUSH1 0xE0 SHR DUP1 PUSH4 0x630371A EQ PUSH2 0x59 JUMPI DUP1 PUSH4 0x165C4A16 EQ PUSH2 0x89 JUMPI DUP1 PUSH4 0x2935C707 EQ PUSH2 0xB9 JUMPI DUP1 PUSH4 0x771602F7 EQ PUSH2 0xE9 JUMPI DUP1 PUSH4 0xF88E9FBF EQ PUSH2 0x119 JUMPI JUMPDEST PUSH0 DUP1 REVERT JUMPDEST PUSH2 0x73 PUSH1 0x4 DUP1 CALLDATASIZE SUB DUP2 ADD SWAP1 PUSH2 0x6E SWAP2 SWAP1 PUSH2 0x1E9 JUMP JUMPDEST PUSH2 0x149 JUMP JUMPDEST PUSH1 0x40 MLOAD PUSH2 0x80 SWAP2 SWAP1 PUSH2 0x236 JUMP JUMPDEST PUSH1 0x40 MLOAD DUP1 SWAP2 SUB SWAP1 RETURN JUMPDEST PUSH2 0xA3 PUSH1 0x4 DUP1 CALLDATASIZE SUB DUP2 ADD SWAP1 PUSH2 0x9E SWAP2 SWAP1 PUSH2 0x1E9 JUMP JUMPDEST PUSH2 0x15E JUMP JUMPDEST PUSH1 0x40 MLOAD PUSH2 0xB0 SWAP2 SWAP1 PUSH2 0x236 JUMP JUMPDEST PUSH1 0x40 MLOAD DUP1 SWAP2 SUB SWAP1 RETURN JUMPDEST PUSH2 0xD3 PUSH1 0x4 DUP1 CALLDATASIZE SUB DUP2 ADD SWAP1 PUSH2 0xCE SWAP2 SWAP1 PUSH2 0x282 JUMP JUMPDEST PUSH2 0x173 JUMP JUMPDEST PUSH1 0x40 MLOAD PUSH2 0xE0 SWAP2 SWAP1 PUSH2 0x2CF JUMP JUMPDEST PUSH1 0x40 MLOAD DUP1 SWAP2 SUB SWAP1 RETURN JUMPDEST PUSH2 0x103 PUSH1 0x4 DUP1 CALLDATASIZE SUB DUP2 ADD SWAP1 PUSH2 0xFE SWAP2 SWAP1 PUSH2 0x1E9 JUMP JUMPDEST PUSH2 0x188 JUMP JUMPDEST PUSH1 0x40 MLOAD PUSH2 0x110 SWAP2 SWAP1 PUSH2 0x236 JUMP JUMPDEST PUSH1 0x40 MLOAD DUP1 SWAP2 SUB SWAP1 RETURN JUMPDEST PUSH2 0x133 PUSH1 0x4 DUP1 CALLDATASIZE SUB DUP2 ADD SWAP1 PUSH2 0x12E SWAP2 SWAP1 PUSH2 0x1E9 JUMP JUMPDEST PUSH2 0x19D JUMP JUMPDEST PUSH1 0x40 MLOAD PUSH2 0x140 SWAP2 SWAP1 PUSH2 0x236 JUMP JUMPDEST PUSH1 0x40 MLOAD DUP1 SWAP2 SUB SWAP1 RETURN JUMPDEST PUSH0 DUP2 DUP4 PUSH2 0x156 SWAP2 SWAP1 PUSH2 0x315 JUMP JUMPDEST SWAP1 POP SWAP3 SWAP2 POP POP JUMP JUMPDEST PUSH0 DUP2 DUP4 PUSH2 0x16B SWAP2 SWAP1 PUSH2 0x348 JUMP JUMPDEST SWAP1 POP SWAP3 SWAP2 POP POP JUMP JUMPDEST PUSH0 DUP2 DUP4 PUSH2 0x180 SWAP2 SWAP1 PUSH2 0x389 JUMP JUMPDEST SWAP1 POP SWAP3 SWAP2 POP POP JUMP JUMPDEST PUSH0 DUP2 DUP4 PUSH2 0x195 SWAP2 SWAP1 PUSH2 0x3C9 JUMP JUMPDEST SWAP1 POP SWAP3 SWAP2 POP POP JUMP JUMPDEST PUSH0 DUP2 DUP4 PUSH2 0x1AA SWAP2 SWAP1 PUSH2 0x429 JUMP JUMPDEST SWAP1 POP SWAP3 SWAP2 POP POP JUMP JUMPDEST PUSH0 DUP1 REVERT JUMPDEST PUSH0 DUP2 SWAP1 POP SWAP2 SWAP1 POP JUMP JUMPDEST PUSH2 0x1C8 DUP2 PUSH2 0x1B6 JUMP JUMPDEST DUP2 EQ PUSH2 0x1D2 JUMPI PUSH0 DUP1 REVERT JUMPDEST POP JUMP JUMPDEST PUSH0 DUP2 CALLDATALOAD SWAP1 POP PUSH2 0x1E3 DUP2 PUSH2 0x1BF JUMP JUMPDEST SWAP3 SWAP2 POP POP JUMP JUMPDEST PUSH0 DUP1 PUSH1 0x40 DUP4 DUP6 SUB SLT ISZERO PUSH2 0x1FF JUMPI PUSH2 0x1FE PUSH2 0x1B2 JUMP JUMPDEST JUMPDEST PUSH0 PUSH2 0x20C DUP6 DUP3 DUP7 ADD PUSH2 0x1D5 JUMP JUMPDEST SWAP3 POP POP PUSH1 0x20 PUSH2 0x21D DUP6 DUP3 DUP7 ADD PUSH2 0x1D5 JUMP JUMPDEST SWAP2 POP POP SWAP3 POP SWAP3 SWAP1 POP JUMP JUMPDEST PUSH2 0x230 DUP2 PUSH2 0x1B6 JUMP JUMPDEST DUP3 MSTORE POP POP JUMP JUMPDEST PUSH0 PUSH1 0x20 DUP3 ADD SWAP1 POP PUSH2 0x249 PUSH0 DUP4 ADD DUP5 PUSH2 0x227 JUMP JUMPDEST SWAP3 SWAP2 POP POP JUMP JUMPDEST PUSH0 DUP2 SWAP1 POP SWAP2 SWAP1 POP JUMP JUMPDEST PUSH2 0x261 DUP2 PUSH2 0x24F JUMP JUMPDEST DUP2 EQ PUSH2 0x26B JUMPI PUSH0 DUP1 REVERT JUMPDEST POP JUMP JUMPDEST PUSH0 DUP2 CALLDATALOAD SWAP1 POP PUSH2 0x27C DUP2 PUSH2 0x258 JUMP JUMPDEST SWAP3 SWAP2 POP POP JUMP JUMPDEST PUSH0 DUP1 PUSH1 0x40 DUP4 DUP6 SUB SLT ISZERO PUSH2 0x298 JUMPI PUSH2 0x297 PUSH2 0x1B2 JUMP JUMPDEST JUMPDEST PUSH0 PUSH2 0x2A5 DUP6 DUP3 DUP7 ADD PUSH2 0x26E JUMP JUMPDEST SWAP3 POP POP PUSH1 0x20 PUSH2 0x2B6 DUP6 DUP3 DUP7 ADD PUSH2 0x26E JUMP JUMPDEST SWAP2 POP POP SWAP3 POP SWAP3 SWAP1 POP JUMP JUMPDEST PUSH2 0x2C9 DUP2 PUSH2 0x24F JUMP JUMPDEST DUP3 MSTORE POP POP JUMP JUMPDEST PUSH0 PUSH1 0x20 DUP3 ADD SWAP1 POP PUSH2 0x2E2 PUSH0 DUP4 ADD DUP5 PUSH2 0x2C0 JUMP JUMPDEST SWAP3 SWAP2 POP POP JUMP JUMPDEST PUSH32 0x4E487B7100000000000000000000000000000000000000000000000000000000 PUSH0 MSTORE PUSH1 0x11 PUSH1 0x4 MSTORE PUSH1 0x24 PUSH0 REVERT JUMPDEST PUSH0 PUSH2 0x31F DUP3 PUSH2 0x1B6 JUMP JUMPDEST SWAP2 POP PUSH2 0x32A DUP4 PUSH2 0x1B6 JUMP JUMPDEST SWAP3 POP DUP3 DUP3 SUB SWAP1 POP DUP2 DUP2 GT ISZERO PUSH2 0x342 JUMPI PUSH2 0x341 PUSH2 0x2E8 JUMP JUMPDEST JUMPDEST SWAP3 SWAP2 POP POP JUMP JUMPDEST PUSH0 PUSH2 0x352 DUP3 PUSH2 0x1B6 JUMP JUMPDEST SWAP2 POP PUSH2 0x35D DUP4 PUSH2 0x1B6 JUMP JUMPDEST SWAP3 POP DUP3 DUP3 MUL PUSH2 0x36B DUP2 PUSH2 0x1B6 JUMP JUMPDEST SWAP2 POP DUP3 DUP3 DIV DUP5 EQ DUP4 ISZERO OR PUSH2 0x382 JUMPI PUSH2 0x381 PUSH2 0x2E8 JUMP JUMPDEST JUMPDEST POP SWAP3 SWAP2 POP POP JUMP JUMPDEST PUSH0 PUSH2 0x393 DUP3 PUSH2 0x24F JUMP JUMPDEST SWAP2 POP PUSH2 0x39E DUP4 PUSH2 0x24F JUMP JUMPDEST SWAP3 POP DUP3 DUP3 SUB SWAP1 POP DUP2 DUP2 SLT PUSH0 DUP5 SLT AND DUP3 DUP3 SGT PUSH0 DUP6 SLT ISZERO AND OR ISZERO PUSH2 0x3C3 JUMPI PUSH2 0x3C2 PUSH2 0x2E8 JUMP JUMPDEST JUMPDEST SWAP3 SWAP2 POP POP JUMP JUMPDEST PUSH0 PUSH2 0x3D3 DUP3 PUSH2 0x1B6 JUMP JUMPDEST SWAP2 POP PUSH2 0x3DE DUP4 PUSH2 0x1B6 JUMP JUMPDEST SWAP3 POP DUP3 DUP3 ADD SWAP1 POP DUP1 DUP3 GT ISZERO PUSH2 0x3F6 JUMPI PUSH2 0x3F5 PUSH2 0x2E8 JUMP JUMPDEST JUMPDEST SWAP3 SWAP2 POP POP JUMP JUMPDEST PUSH32 0x4E487B7100000000000000000000000000000000000000000000000000000000 PUSH0 MSTORE PUSH1 0x12 PUSH1 0x4 MSTORE PUSH1 0x24 PUSH0 REVERT JUMPDEST PUSH0 PUSH2 0x433 DUP3 PUSH2 0x1B6 JUMP JUMPDEST SWAP2 POP PUSH2 0x43E DUP4 PUSH2 0x1B6 JUMP JUMPDEST SWAP3 POP DUP3 PUSH2 0x44E JUMPI PUSH2 0x44D PUSH2 0x3FC JUMP JUMPDEST JUMPDEST DUP3 DUP3 DIV SWAP1 POP SWAP3 SWAP2 POP POP JUMP INVALID LOG2 PUSH5 0x6970667358 0x22 SLT KECCAK256 0x2E 0xBC 0x4C SWAP10 0xC0 0xDA 0x1E 0xD3 GAS 0xEB 0x23 MLOAD 0x28 CALLDATALOAD DUP4 LOG2 AND 0xBF ADDRESS MUL 0xDE 0xC5 SSTORE 0x1F DELEGATECALL 0xF6 CALLER CALLDATACOPY 0xD4 0xC1 BYTE 0xC1 PUSH5 0x736F6C6343 STOP ADDMOD AND STOP CALLER "
		},
		"gasEstimates": {
			"creation": {
				"codeDepositCost": "233400",
				"executionCost": "273",
				"totalCost": "233673"
			},
			"external": {
				"add(uint256,uint256)": "infinite",
				"divide(uint256,uint256)": "infinite",
				"multiply(uint256,uint256)": "infinite",
				"subtract1(uint256,uint256)": "infinite",
				"subtract2(int256,int256)": "infinite"
			}
		},
		"methodIdentifiers": {
			"add(uint256,uint256)": "771602f7",
			"divide(uint256,uint256)": "f88e9fbf",
			"multiply(uint256,uint256)": "165c4a16",
			"subtract1(uint256,uint256)": "0630371a",
			"subtract2(int256,int256)": "2935c707"
		}
	},
	"abi": [
		{
			"inputs": [
				{
					"internalType": "uint256",
					"name": "_a",
					"type": "uint256"
				},
				{
					"internalType": "uint256",
					"name": "_b",
					"type": "uint256"
				}
			],
			"name": "add",
			"outputs": [
				{
					"internalType": "uint256",
					"name": "",
					"type": "uint256"
				}
			],
			"stateMutability": "pure",
			"type": "function"
		},
		{
			"inputs": [
				{
					"internalType": "uint256",
					"name": "_a",
					"type": "uint256"
				},
				{
					"internalType": "uint256",
					"name": "_b",
					"type": "uint256"
				}
			],
			"name": "divide",
			"outputs": [
				{
					"internalType": "uint256",
					"name": "",
					"type": "uint256"
				}
			],
			"stateMutability": "pure",
			"type": "function"
		},
		{
			"inputs": [
				{
					"internalType": "uint256",
					"name": "_a",
					"type": "uint256"
				},
				{
					"internalType": "uint256",
					"name": "_b",
					"type": "uint256"
				}
			],
			"name": "multiply",
			"outputs": [
				{
					"internalType": "uint256",
					"name": "",
					"type": "uint256"
				}
			],
			"stateMutability": "pure",
			"type": "function"
		},
		{
			"inputs": [
				{
					"internalType": "uint256",
					"name": "_a",
					"type": "uint256"
				},
				{
					"internalType": "uint256",
					"name": "_b",
					"type": "uint256"
				}
			],
			"name": "subtract1",
			"outputs": [
				{
					"internalType": "uint256",
					"name": "",
					"type": "uint256"
				}
			],
			"stateMutability": "pure",
			"type": "function"
		},
		{
			"inputs": [
				{
					"internalType": "int256",
					"name": "_a",
					"type": "int256"
				},
				{
					"internalType": "int256",
					"name": "_b",
					"type": "int256"
				}
			],
			"name": "subtract2",
			"outputs": [
				{
					"internalType": "int256",
					"name": "",
					"type": "int256"
				}
			],
			"stateMutability": "pure",
			"type": "function"
		}
	]
}