{
	"data": {
		"bytecode": {
			"linkReferences": {},
			"object": "608060405234801561000f575f80fd5b5061026b8061001d5f395ff3fe608060405234801561000f575f80fd5b5060043610610029575f3560e01c8063cc193fb01461002d575b5f80fd5b61004760048036038101906100429190610117565b61005d565b6040516100549190610151565b60405180910390f35b5f808211801561006d5750600482105b1561008557818261007e9190610197565b90506100db565b6003821180156100955750600782105b156100ae576002826100a79190610197565b90506100db565b6006821180156100be5750600a82105b156100d7576003826100d09190610205565b90506100db565b5f90505b919050565b5f80fd5b5f819050919050565b6100f6816100e4565b8114610100575f80fd5b50565b5f81359050610111816100ed565b92915050565b5f6020828403121561012c5761012b6100e0565b5b5f61013984828501610103565b91505092915050565b61014b816100e4565b82525050565b5f6020820190506101645f830184610142565b92915050565b7f4e487b71000000000000000000000000000000000000000000000000000000005f52601160045260245ffd5b5f6101a1826100e4565b91506101ac836100e4565b92508282026101ba816100e4565b915082820484148315176101d1576101d061016a565b5b5092915050565b7f4e487b71000000000000000000000000000000000000000000000000000000005f52601260045260245ffd5b5f61020f826100e4565b915061021a836100e4565b92508261022a576102296101d8565b5b82820690509291505056fea2646970667358221220b39e7640cebd15043332f6977d11ba67d7a91b9e9d1a95af38ac49763dcb377964736f6c63430008160033",
			"opcodes": "PUSH1 0x80 PUSH1 0x40 MSTORE CALLVALUE DUP1 ISZERO PUSH2 0xF JUMPI PUSH0 DUP1 REVERT JUMPDEST POP PUSH2 0x26B DUP1 PUSH2 0x1D PUSH0 CODECOPY PUSH0 RETURN INVALID PUSH1 0x80 PUSH1 0x40 MSTORE CALLVALUE DUP1 ISZERO PUSH2 0xF JUMPI PUSH0 DUP1 REVERT JUMPDEST POP PUSH1 0x4 CALLDATASIZE LT PUSH2 0x29 JUMPI PUSH0 CALLDATALOAD PUSH1 0xE0 SHR DUP1 PUSH4 0xCC193FB0 EQ PUSH2 0x2D JUMPI JUMPDEST PUSH0 DUP1 REVERT JUMPDEST PUSH2 0x47 PUSH1 0x4 DUP1 CALLDATASIZE SUB DUP2 ADD SWAP1 PUSH2 0x42 SWAP2 SWAP1 PUSH2 0x117 JUMP JUMPDEST PUSH2 0x5D JUMP JUMPDEST PUSH1 0x40 MLOAD PUSH2 0x54 SWAP2 SWAP1 PUSH2 0x151 JUMP JUMPDEST PUSH1 0x40 MLOAD DUP1 SWAP2 SUB SWAP1 RETURN JUMPDEST PUSH0 DUP1 DUP3 GT DUP1 ISZERO PUSH2 0x6D JUMPI POP PUSH1 0x4 DUP3 LT JUMPDEST ISZERO PUSH2 0x85 JUMPI DUP2 DUP3 PUSH2 0x7E SWAP2 SWAP1 PUSH2 0x197 JUMP JUMPDEST SWAP1 POP PUSH2 0xDB JUMP JUMPDEST PUSH1 0x3 DUP3 GT DUP1 ISZERO PUSH2 0x95 JUMPI POP PUSH1 0x7 DUP3 LT JUMPDEST ISZERO PUSH2 0xAE JUMPI PUSH1 0x2 DUP3 PUSH2 0xA7 SWAP2 SWAP1 PUSH2 0x197 JUMP JUMPDEST SWAP1 POP PUSH2 0xDB JUMP JUMPDEST PUSH1 0x6 DUP3 GT DUP1 ISZERO PUSH2 0xBE JUMPI POP PUSH1 0xA DUP3 LT JUMPDEST ISZERO PUSH2 0xD7 JUMPI PUSH1 0x3 DUP3 PUSH2 0xD0 SWAP2 SWAP1 PUSH2 0x205 JUMP JUMPDEST SWAP1 POP PUSH2 0xDB JUMP JUMPDEST PUSH0 SWAP1 POP JUMPDEST SWAP2 SWAP1 POP JUMP JUMPDEST PUSH0 DUP1 REVERT JUMPDEST PUSH0 DUP2 SWAP1 POP SWAP2 SWAP1 POP JUMP JUMPDEST PUSH2 0xF6 DUP2 PUSH2 0xE4 JUMP JUMPDEST DUP2 EQ PUSH2 0x100 JUMPI PUSH0 DUP1 REVERT JUMPDEST POP JUMP JUMPDEST PUSH0 DUP2 CALLDATALOAD SWAP1 POP PUSH2 0x111 DUP2 PUSH2 0xED JUMP JUMPDEST SWAP3 SWAP2 POP POP JUMP JUMPDEST PUSH0 PUSH1 0x20 DUP3 DUP5 SUB SLT ISZERO PUSH2 0x12C JUMPI PUSH2 0x12B PUSH2 0xE0 JUMP JUMPDEST JUMPDEST PUSH0 PUSH2 0x139 DUP5 DUP3 DUP6 ADD PUSH2 0x103 JUMP JUMPDEST SWAP2 POP POP SWAP3 SWAP2 POP POP JUMP JUMPDEST PUSH2 0x14B DUP2 PUSH2 0xE4 JUMP JUMPDEST DUP3 MSTORE POP POP JUMP JUMPDEST PUSH0 PUSH1 0x20 DUP3 ADD SWAP1 POP PUSH2 0x164 PUSH0 DUP4 ADD DUP5 PUSH2 0x142 JUMP JUMPDEST SWAP3 SWAP2 POP POP JUMP JUMPDEST PUSH32 0x4E487B7100000000000000000000000000000000000000000000000000000000 PUSH0 MSTORE PUSH1 0x11 PUSH1 0x4 MSTORE PUSH1 0x24 PUSH0 REVERT JUMPDEST PUSH0 PUSH2 0x1A1 DUP3 PUSH2 0xE4 JUMP JUMPDEST SWAP2 POP PUSH2 0x1AC DUP4 PUSH2 0xE4 JUMP JUMPDEST SWAP3 POP DUP3 DUP3 MUL PUSH2 0x1BA DUP2 PUSH2 0xE4 JUMP JUMPDEST SWAP2 POP DUP3 DUP3 DIV DUP5 EQ DUP4 ISZERO OR PUSH2 0x1D1 JUMPI PUSH2 0x1D0 PUSH2 0x16A JUMP JUMPDEST JUMPDEST POP SWAP3 SWAP2 POP POP JUMP JUMPDEST PUSH32 0x4E487B7100000000000000000000000000000000000000000000000000000000 PUSH0 MSTORE PUSH1 0x12 PUSH1 0x4 MSTORE PUSH1 0x24 PUSH0 REVERT JUMPDEST PUSH0 PUSH2 0x20F DUP3 PUSH2 0xE4 JUMP JUMPDEST SWAP2 POP PUSH2 0x21A DUP4 PUSH2 0xE4 JUMP JUMPDEST SWAP3 POP DUP3 PUSH2 0x22A JUMPI PUSH2 0x229 PUSH2 0x1D8 JUMP JUMPDEST JUMPDEST DUP3 DUP3 MOD SWAP1 POP SWAP3 SWAP2 POP POP JUMP INVALID LOG2 PUSH5 0x6970667358 0x22 SLT KECCAK256 0xB3 SWAP15 PUSH23 0x40CEBD15043332F6977D11BA67D7A91B9E9D1A95AF38AC 0x49 PUSH23 0x3DCB377964736F6C634300081600330000000000000000 "
		},
		"gasEstimates": {
			"creation": {
				"codeDepositCost": "123800",
				"executionCost": "169",
				"totalCost": "123969"
			},
			"external": {
				"power(uint256)": "infinite"
			}
		},
		"methodIdentifiers": {
			"power(uint256)": "cc193fb0"
		}
	},
	"abi": [
		{
			"inputs": [
				{
					"internalType": "uint256",
					"name": "_a",
					"type": "uint256"
				}
			],
			"name": "power",
			"outputs": [
				{
					"internalType": "uint256",
					"name": "",
					"type": "uint256"
				}
			],
			"stateMutability": "pure",
			"type": "function"
		}
	]
}